:020000040800F2
:10000000D87E0020910D00088106000883060008B4
:10001000870600088B0600088F0600080000000015
:10002000000000000000000000000000930600082F
:1000300095060008000000006FA400089BA20008BD
:10004000AF0D0008AF0D0008AF0D0008AF0D0008A0
:10005000AF0D0008AF0D0008AF0D00089B060008AB
:10006000AF0D0008AF0D0008AF0D0008AF0D000880
:10007000AF0D0008AF0D0008AF0D0008AF0D000870
:10008000AF0D0008AF0D0008AF0D0008AF0D000860
:10009000AF0D0008AF0D0008AF0D0008AF0D000850
:1000A000AF0D0008AF0D0008AF0D0008AF0D000840
:1000B000AF0D0008AF0D00089D060008AF0D000849
:1000C000AF0D0008AF0D0008AF0D0008AF0D000820
:1000D000AF0D0008AF0D0008AF0D0008AF0D000810
:1000E000AF0D0008AF0D0008AF0D0008AF0D000800
:1000F000AF0D0008AF0D0008AF0D0008AF0D0008F0
:10010000AF0D0008AF0D0008AF0D0008AF0D0008DF
:10011000AF0D0008AF0D0008AF0D0008AF0D0008CF
:10012000AF0D0008AF0D0008AF0D0008AF0D0008BF
:10013000AF0D0008AF0D0008AF0D0008AF0D0008AF
:10014000AF0D0008AF0D0008AF0D0008AF0D00089F
:10015000AF0D0008AF0D0008AF0D0008AF0D00088F
:10016000AF0D0008AF0D0008AF0D0008AF0D00087F
:10017000AF0D0008AF0D0008AF0D0008AF0D00086F
:10018000AF0D0008AF0D0008DFF80CD00AF042F9FF
:1001900000480047CB050008D87E002004E000F0AE
:1001A00009F8012000F0C8FBF9E702E0642000F044
:1001B000C3FBFBE70AA20021084600F0BEF808A234
:1001C0000121002000F0B9F809E005A000F098F83E
:1001D000054908604FF40041044801F04AFAF4E789
:1001E0004C4544310000000000000020000C02409B
:1001F0001CB50121102001F00FFE0121022001F0A9
:100200000BFE8020009000208DF8040001208DF866
:10021000060000208DF8050002208DF807006946D1
:10022000354801F09FF98021334801F0FDF904467B
:10023000012C1BD18DF8040000208DF8060002204F
:100240008DF8070069462C4801F08CF980212A4876
:1002500001F004FA294800884FF6FF7101EA4000D6
:100260002649088008460088401C08801CBD1CB533
:1002700000F06CFB04460120207060700020E070EC
:100280003020A070A0780622694600F0E9FC1CBD71
:100290002DE9F04104460D46601CC4B2112C1CD25D
:1002A000DFE804F01B090A0B0C0D0E0F10111213DE
:1002B00014151617180000BF00BF00BF00BF00BF15
:1002C00000BF00BF00BF00BF00BF00BF00BF00BF36
:1002D00000BF00BF084E802700E000BF00BF25B16F
:1002E0003946304601F0BCF903E03946304601F0AA
:1002F000B5F9BDE8F08100000004024004000020D0
:1003000070B50546002400BF12E004EB4400534AD8
:1003100002EBC00128460AF047F838B904EB440064
:100320004E4901EBC0000069008870BD601CC4B27A
:10033000102CEADB4FF6FF70F7E72DE9F041064697
:100340000F46144646480078102801DBBDE8F081CE
:100350004348007800EB4000404901EBC000867242
:1003600001203F49097801EB41013C4A02EBC10100
:10037000C87220460AF011F8C5B2002D0BDD0A2D17
:1003800009DA3749097801EB4101344A02EBC1002F
:1003900021460AF017F800203149097801EB4101A4
:1003A0002E4A02EBC10108732E482D49097800EB53
:1003B00081002B49097801EB410102EBC101086181
:1003C00027480078401C2649087000BFBEE72DE989
:1003D000F04106460F46144621480078102801DBFC
:1003E000BDE8F08100201E49097801EB41011B4A5C
:1003F00002EBC101C872204609F0CFFFC5B2002D43
:100400000BDD0A2D09DA1649097801EB4101134A7F
:1004100002EBC100214609F0D5FF00201049097800
:1004200001EB41010D4A02EBC10108730E480C4972
:10043000097800EB81000A49097801EB410102EBE0
:10044000C101086106480078401C0549087000BFDA
:10045000C6E710B500F00AF810BD000080010020CA
:10046000060000200001002040010020704700B578
:100470008BB00AA8032100220823CDE90532CDE97B
:100480000710104699013322634BCDE90132CDE9C3
:1004900003103C200023614A61A10090644807F0EA
:1004A000ACFC0AA8032100220823CDE90532CDE9DE
:1004B00007101046D90166225E4BCDE90132CDE925
:1004C00003103C2000235C4A5CA10090604807F0C8
:1004D00094FC0BB000BD0EB500BF01F0FBFD00F0B9
:1004E000F8F802F0B3F802F085F802A807F0D4F8A3
:1004F000FFF7BDFF00F0C0FAFFF77AFE64E04FF4AB
:100500000041544801F0B5F8002452E00120A04019
:10051000514909880840002849D000F017FA0546DB
:100520000120287068700020E8703020A870012138
:100530002046FFF7ADFE02A8002105230A46CDE9BB
:100540000010084609F0AEFB06224449302000F0B6
:1005500087FB00212046FFF79BFE0027002605E0D1
:100560003E48805D3844C7B2701CC6B2052EF7DB2A
:100570003A484079B8421AD1002000F020F93748B3
:10058000007804EB4401364A02EBC1010875334898
:10059000407804EB440102EBC101096908802F484F
:1005A000807804EB440102EBC10109694880601CBA
:1005B000C4B2102CAADB02A800211E230A46CDE9F2
:1005C0000010084609F06EFB99E700B58FB00AA845
:1005D00001F08DFB0EA802F022FF0EA803210022DD
:1005E0000592CDE90621089010464FF400713322A0
:1005F0001C4BCDE90132CDE90310022000231A4A39
:100600001AA100901D4807F0F8FB0EA803F09AF914
:1006100000200FB000BD0000780C00209D010008F4
:10062000417070205461736B2047554900000000F1
:10063000BC0B002034150020AB0100084170702075
:100640005461736B20475549526566726573680043
:1006500078140020000C0240040000200800002054
:1006600080010020BC030020D704000841707020E6
:100670005461736B20537461727400000003002096
:10068000704700BFFEE700BFFEE700BFFEE700BF08
:10069000FEE770477047704770477047704700002B
:1006A00010B54FF4407000F0ABFC10BD10B5012147
:1006B000080301F0B1FBFFF7F3FF00F053F800F07F
:1006C000DBF910BD1FB5684601F011FB019804B0BD
:1006D00010BD70B5FFF7F6FF04461E480068B4FB76
:1006E000F0F5284609F0F3FD70BD10B5FFF7EAFFFD
:1006F00004461948006840F08070174908600020DF
:10070000164948600846006840F00100086020462D
:1007100001F051FD10BD1149486870472DE9F047BF
:100720008246FFF7CFFF4FF0000980460C4A0023B6
:100730004046494609F000FE064632460B46504602
:10074000002109F0F9FD04460D4620462946BDE882
:10075000F0870000F8A60008FCED00E0001000E0C3
:1007600040420F001CB50121082001F055FB4FF459
:100770007040009001208DF8040000208DF80600E4
:1007800003208DF8050000208DF8070069462148F8
:1007900000F0E8FE4FF480511E4800F05FFF4FF478
:1007A00000511C4800F05AFF4FF48041194800F0F6
:1007B00055FF4FF40041174800F050FF1CBD10B525
:1007C000044634B1012C19D0022C1DD0032C1DD1AC
:1007D0001BE04FF480510F4800F04BFF4FF40051E5
:1007E0000C4800F046FF4FF480410A4800F041FFFA
:1007F0004FF40041074800F03CFF08E04FF400517F
:10080000044800F02DFF02E001E000E000BF00BF5F
:1008100010BD0000000C0240F8B506460C46154617
:100820006B4622462946304606F0B1FABDF8000074
:1008300008B10020F8BD0120FCE77CB505460C4658
:100840004FF47A70604340490968B0FBF1F601A8A3
:1008500000231A4631460090284606F0C7FBBDF833
:10086000040008B100207CBD0120FCE738B5044637
:100870006A460021204606F0F6FDBDF8000008B1EA
:10088000002038BD0120FCE738B504460D466A4615
:100890002946204605F067F8BDF8000008B10020A1
:1008A00038BD0120FCE77CB505460C464FF47A7054
:1008B000604325490968B0FBF1F601A800231A46F8
:1008C00031460090284605F075FABDF8040008B1DD
:1008D00000207CBD0120FCE738B504466A460021B3
:1008E000204605F065FCBDF8000008B1002038BDC9
:1008F0000120FCE7FEB5044642F21070844200D9A4
:100900000446B4F57A7F0BD34FF47A70B4FBF0F061
:1009100086B24FF47A70B4FBF0F100FB114501E0B0
:10092000A5B2002602A800212B463246CDE90010D0
:10093000084609F0B7F9FEBD38B504466A460021FD
:10094000204609F02FF938BDF8A60008F8480068DD
:10095000704710B5FFF7FAFF0446F649F64801F074
:100960008CF878B1F4481830008800F0010028B104
:100970000121F14800F073FF03202070ED49EE489B
:1009800001F098F8ED49EC4801F077F878B1EA48C1
:100990001830008800F0010028B10121E64800F07D
:1009A0005EFF03202070E549E34801F083F810BDA5
:1009B00070B5FFF7CBFF0446DF4801F051F805465C
:1009C000DF49681A8D4240D006DC6FF4403028447D
:1009D00048B101284BD124E0A0F58020423898B3DB
:1009E000022844D142E002202070607828B9A17822
:1009F0000022D14800F03FFF04E0A1780122CE4858
:100A000000F039FFE07830B900224FF48061CA4825
:100A100001F008F804E001229102C74801F002F851
:100A200025E000224FF4C061C34800F0FBFF012124
:100A3000C14800F0E0FF0121BF4800F0D0FF0121D4
:100A4000C04800F029FC12E000E010E000224FF462
:100A50008061B94800F0E6FF0121B74800F0BFFF10
:100A60000121B848183000F017FC00E000BF00BFBB
:100A700070BDAF490860704700B595B001214805C9
:100A800001F0FDF90121022001F0C6F9012148051C
:100A900001F0C2F94FF41070139002208DF850004D
:100AA0008DF8510001208DF8520000208DF8530080
:100AB00013A9A54800F056FD04220621A24800F023
:100AC000DCFD04220921A04800F0D7FD9D48183024
:100AD00000F006FB4FF00070009097481030019036
:100AE0009A48029040200390062004900020059030
:100AF0004FF48060069000200790089009904FF412
:100B000040300A9069468F48183000F08BFB8D48C2
:100B100000F0E6FA4FF00070009087481030019026
:100B20008B4802900020039006200490002005903E
:100B30004FF48060069000200790089009904FF4D1
:100B400000300A9069467F4800F06CFB0020ADF849
:100B500040004BF6FF70ADF842003020ADF8440085
:100B60004FF48060ADF846000001ADF848007948C8
:100B70000F900121704800F05AFE0FA96E4800F056
:100B8000DAFD15B000BD2DE9F04105460E461746C9
:100B9000002407E0062C00DB06E0305D6B490855B9
:100BA000601CC4B2BC42F5DB00BF00BF4FF4003193
:100BB000614800F062FF0028F8D100224FF4806104
:100BC0005D4800F02FFF01215B4800F03CFE00BFB4
:100BD0005B493F39584800F02EFF0028F8D000222A
:100BE0002946554800F047FE00BF5B49524800F0D7
:100BF00022FF0028F9D001214F4800F0F0FE01212A
:100C00005048183000F048FB00BF54494D48183098
:100C100000F09FFB0028F8D00021474800F0DFFEDD
:100C200000214848183000F037FB4D49454818303E
:100C300000F0ABFB00BF40481430008800F0040017
:100C40000028F8D001213C4800F009FE00BF3A48D6
:100C50001830008800F002000028F8D1BDE8F081CB
:100C60002DE9F04105460E4617464FF0000800BF3B
:100C700000BF01F069FB804600BF00BF01212E4884
:100C800000F001FE2C48008800F4007030B12A48C2
:100C900000884FF6FF510840274908800121264867
:100CA00000F0D1FD00BF26493F39234800F0C3FEC4
:100CB0000028F8D0012229461F4800F0DCFD00BFC3
:100CC0001F493E391C4800F0B6FE0028F8D001212B
:100CD000194800F090FE0121174800F080FE012124
:100CE000184800F0D9FA00BF1E49164800F031FB41
:100CF0000028F9D00021104800F071FE01210E48B3
:100D000000F0ADFD00210F4800F0C6FA16490D486D
:100D100000F03BFB0749084800F0CCFE00BF00BFD5
:100D2000404601F015FB00BF00BF002429E0000091
:100D300014000020000400100054004000010010C6
:100D40004000030088600240000402403425002077
:100D50003E250020A0860100820007000000202020
:100D600000003D2000080020400F0020BC4200DBB6
:100D700009E00648005D3055002004490855601C14
:100D8000C4B2062CF2DB00BFBDE8F0813E25002096
:100D9000074880470748804707480047FEE7FEE7C7
:100DA000FEE7FEE7FEE7FEE7FEE7FEE7FEE7FEE71B
:100DB000CB0E0008AD060008890100080CB5002024
:100DC000019000908248006840F4803080490860BB
:100DD00000BF7F48006800F4003000900198401C7C
:100DE0000190009818B90198B0F5A06FF1D178483A
:100DF000006800F4003010B10120009001E00020F4
:100E000000900098012846D171484030006840F0B9
:100E100080506F49403108606E48006840F480405F
:100E20006C4908606A480830006869490831086000
:100E30000846006840F4004008600846006840F436
:100E4000A05008606448091F0860081F006840F04F
:100E50008070091F086000BF5D48006800F00070E6
:100E60000028F9D040F205605C4908605848083015
:100E7000006820F003005649083108600846006801
:100E800040F00200086000BF51480830006800F0E0
:100E90000C000828F8D14E480830006820F4000003
:100EA0004B49083108604E48494984310860484838
:100EB000006840F080604649086000BF4448006810
:100EC00000F000600028F9D00CBD10B5454800685E
:100ED00040F47000434908603D48006840F001005C
:100EE0003B49086000203A490831086038480068EA
:100EF0003D490840364908603C48091D0860081F04
:100F0000006820F48020091F0860002030490C315F
:100F10000860FFF753FF4FF00060324980390860E6
:100F200010BD70B500200022022300240221284DAC
:100F300008352D6805F00C0020B1042806D00828DB
:100F400034D107E02A4D2B4E356033E02A4D294E2F
:100F500035602FE01E4D2D1D2D68C5F380541C4DAE
:100F60002D1D2D6805F03F0154B1234DB5FBF1F562
:100F7000174E361D3668C6F3881605FB06F209E0E3
:100F80001B4DB5FBF1F5124E361D3668C6F38816BB
:100F900005FB06F20E4D2D1D2D68C5F301456D1C98
:100FA0006B00B2FBF3F5134E356003E0104D114EAC
:100FB000356000BF00BF064D08352D68C5F3031529
:100FC0000E4E705D0B4D2D68C5400A4E356070BDEC
:100FD000003802400070004008544007003C0240C6
:100FE0008040003088ED00E0FFFFF6FE1030002466
:100FF0000024F4001800002000127A001C000020D9
:1010000032490143324A1160704770B50021002314
:101010000F22C4781CB32E4C246804F4E064C4F599
:10102000E064C4F30721C1F10404E3B20A41447847
:101030009C40E1B28478144021430C07210E254CDA
:1010400005786155047804F01F050124AC4005784B
:101050006D11AD0005F1E025C5F8004109E0047807
:1010600004F01F050124AC401B4D0678761145F8AD
:10107000264070BD194A0A400243154B1B1F1A60D7
:10108000704739B1124A121D12680243104B1B1DE2
:101090001A6006E00E4A121D126882430C4B1B1D9B
:1010A0001A607047042808D14FF0E021096941F027
:1010B00004014FF0E022116107E04FF0E0210969DF
:1010C00021F004014FF0E022116170470000FA05A1
:1010D0000CED00E000E400E080E100E080FFFF1F95
:1010E000016821F00101016000210160416081601F
:1010F000C160016121214161DB49884204D13D2168
:10110000D94A103A91608CE0D7491831884205D10C
:101110004FF47461D44A103A916082E0D249303180
:10112000884205D14FF47411CF4A103A916078E0AB
:10113000CD494831884205D14FF07461CA4A103A0E
:1011400091606EE0C8496031884204D1C749C64AFF
:10115000103AD16065E0C4497831884204D1C4496D
:10116000C14A103AD1605CE0BF499031884204D155
:10117000C049BD4A103AD16053E0BB49A83188420A
:1011800005D14FF03D51B84A103AD16049E0BA4913
:10119000884204D13D21B84A083A116041E0B6497D
:1011A0001831884205D14FF47461B34A083A11608E
:1011B00037E0B1493031884205D14FF47411AE4A5D
:1011C000083A11602DE0AC494831884205D14FF012
:1011D0007461A94A083A116023E0A7496031884246
:1011E00004D1A249A44A121F11601AE0A249783121
:1011F000884204D19E49A04A121F116011E09E4905
:101200009031884204D19B499B4A121F116008E02B
:101210009949A831884204D14FF03D51964A121F96
:101220001160704710B500220268944B1A40CC68D8
:101230000B6823434C6923438C692343CC692343C4
:101240000C6A23434C6A23438C6A23434C6B23432D
:101250008C6B23431A430260426922F00702D1E9F2
:101260000B3423431A4342610B6943604B6883602C
:101270008B68C36010BD0021016041608160C16066
:10128000016141618161C161016241628162C1624A
:10129000016341638163704721B1026842F001023A
:1012A000026003E0026822F001020260704721B18F
:1012B000026842F40042026003E0026822F4004245
:1012C0000260704721B1026842F02002026003E030
:1012D000026822F0200202607047416070470146B8
:1012E000486880B2704722B1036843F4002303606A
:1012F00003E0036823F4002303600161704721B118
:10130000026842F48022026003E0026822F4802234
:10131000026070470AB1016100E0C1607047014698
:1013200000200A6802F400220AB1012000E0002037
:101330007047014600200A6802F001020AB101204C
:1013400000E000207047014600204A6902F03800A2
:10135000704730B503460A4600200024464DAB4294
:1013600002D24149103901E04349103902F00055D9
:101370000DB14C6800E00C68414D2C4004EA0205B8
:101380000DB1012000E0002030BD02463A4B9A42E8
:1013900002D23548103801E03748103801F00053C8
:1013A0001BB1374B0B40C36002E0354B0B408360F1
:1013B000704710B501F080034BB122B1436943F08F
:1013C0008003436103E0436923F080034361802984
:1013D0000BD02AB1036801F01E042343036004E02C
:1013E000036801F01E04A343036010BD70B50246FC
:1013F000002000240025204EB24202D21A4B103B9E
:1014000001E01D4B103B1F4E0E4036B11E2606EA72
:10141000D124166806EA040502E0566906F0800544
:1014200001F000560EB15C6800E01C68144E3440B8
:1014300004EA010616B10DB1012000E0002070BDE4
:1014400002460D4B9A4202D20748103801E00A4882
:10145000103801F000531BB1094B0B40C36002E090
:10146000074B0B4083607047106002403D00002036
:10147000400F002000003D20106402403F801CF01F
:101480007D0F7D0F3C0F3C0F10B504468C48844205
:1014900008D10121084600F014FD0021012000F0D0
:1014A00010FD5EE08748844208D10121022000F04F
:1014B00008FD0021022000F004FD52E08248844231
:1014C00008D10121042000F0FCFC0021042000F0E0
:1014D000F8FC46E07D48844208D10121082000F054
:1014E000F0FC0021082000F0ECFC3AE0784884424F
:1014F00008D10121102000F0E4FC0021102000F0B0
:10150000E0FC2EE07348844208D10121202000F045
:10151000D8FC0021202000F0D4FC22E06E48844258
:1015200008D10121402000F0CCFC0021402000F037
:10153000C8FC16E06948844208D10121802000F0EF
:10154000C0FC0021802000F0BCFC0AE0644884421A
:1015500007D10121801500F0B4FC0021A01500F096
:10156000B0FC10BDF0B50A4600210023002400BFE6
:101570003DE0012505FA01F3156805EA03049C42E4
:1015800034D105684F000326BE40B5430560157988
:101590004E00B5400668354305601579012D02D02F
:1015A0001579022D16D185684F000326BE40B5433C
:1015B000856055794E00B54086683543856045683D
:1015C00001268E40B5434560456896798E40B6B297
:1015D00035434560C5684F000326BE40B543C5602E
:1015E000D5794E00B540C6683543C560491C102901
:1015F000BFD3F0BD4FF6FF71016000210171417151
:101600008171C171704708B54FF480320092009A21
:101610000A430092009AC261C161009AC261C26924
:101620000092C269009208BD0246002013690B4077
:101630000BB1012000E0002070470146086980B22C
:1016400070470246002053690B400BB1012000E0B7
:10165000002070470146486980B270470183704797
:10166000418370470AB1018300E0418370474161C3
:10167000704742694A4042617047F0B50023002438
:101680004D07ED0E02FA05F3CE1000F1200555F8D6
:1016900026504E07F70E0F26BE40B543CF1000F17F
:1016A000200646F82750CE1000F1200555F82650A8
:1016B00045EA0304CE1000F1200545F82640F0BDB0
:1016C000000002400004024000080240000C0240FA
:1016D000001002400014024000180240001C0240AA
:1016E0000020024010B50446FE48844209D1012181
:1016F000480500F02CFC00214FF4001000F027FCFE
:1017000018E0F948844209D10121880500F01FFC46
:1017100000214FF4800000F01AFC0BE0F3488442F3
:1017200008D10121C80500F012FC00214FF400008F
:1017300000F00DFC10BD2DE9FF4704460D460026C4
:10174000B1460427DFF8A883A6884FF6C07006408C
:10175000684600F0CCFADDF80880E648B8FBF0F007
:101760001FFA80F946EA0906A68020884FF6FE7126
:10177000084020800026E049286888420CD8286864
:101780004000B8FBF0F087B2042F00DA04273E4394
:1017900009F10100208427E0E8884BF6FF718842B8
:1017A00006D1286800EB4000B8FBF0F087B209E0F2
:1017B000286800EBC00101EB0010B8FBF0F087B225
:1017C00047F48047C7F30B0008B947F0010747F417
:1017D000004006434FF4967009FB00F04FF47A7115
:1017E00090FBF1F0401C2084A683208840F001008B
:1017F000208026884FF6F5300640A888698908437E
:1018000006432680A889298908432081BDE8FF87EF
:1018100041F288310160002181804BF6FF71C18067
:101820000021018141814FF480418181704721B1C4
:10183000028842F00102028004E002884FF6FE7343
:101840001A400280704721B1028842F480720280FF
:1018500004E002884FF6FF631A400280704721B10E
:10186000028842F40072028004E002884FF6FF53BF
:101870001A400280704712B141F0010101E001F00D
:10188000FE010182704721B1028842F48062028029
:1018900004E002884FF6FF331A40028070470A4680
:1018A000002181894FF60173194002F0FE031943AC
:1018B0008181704721B1828942F00102828104E076
:1018C00082894FF6FE731A408281704721B10288E7
:1018D00042F04002028004E002884FF6BF731A40D3
:1018E0000280704721B1028842F40042028003E086
:1018F0000288C2F30E020280704721B9028842F0CA
:101900008002028004E002884FF67F731A40028052
:101910007047B1F5804F05D0828B4BF6FF731A40AC
:10192000828303E0828B42F4804282837047B1F568
:10193000006F04D1028842F40062028004E0028851
:101940004FF2FF731A4002807047B1F5005F04D177
:10195000028842F40052028004E002884DF6FF73D0
:101960001A400280704721B1028842F010020280C2
:1019700004E002884FF6EF731A400280704701823C
:1019800070470146088AC0B2704721B1028842F40C
:101990008052028004E002884EF6FF731A400280F3
:1019A0007047B1F5006F04D1028842F400620280F2
:1019B00004E002884FF2FF731A400280704721B1A1
:1019C000028842F02002028004E002884FF6DF73B2
:1019D0001A40028070470146088B0012704721B1FF
:1019E000828842F40062828004E082884FF2FF73B2
:1019F0001A408280704721B1828842F480528280EE
:101A000004E082884EF6FF731A408280704708B562
:101A10000246002000900092009808440090009830
:101A2000008808BD1AB183880B43838002E0838855
:101A30008B438380704770B5024600240025002345
:101A40000020958A138B1B0445EA030626F07F4489
:101A500004EA01068E4201D1012000E0002070BDA1
:101A600010B501460020002300228B8A0A8B120445
:101A700043EA020424F07F4010BD0CB5024600206A
:101A800000230193009300920B0F019321F07F41FB
:101A9000019B1BB1009B1433009303E0090C009BD6
:101AA00018330093009B1B680B400BB1012000E032
:101AB00000200CBD002221F07F42D3438382704777
:101AC00030B5024600200023948801F0E06504EA66
:101AD000154321F07F41948A0C407CB173B1012001
:101AE0000DE000000054004000580040005C004041
:101AF00000127A0040420F00A0860100002030BD95
:101B0000002221F07F42D34383827047FA48006865
:101B100040F00100F84908600020F74908310860EA
:101B2000F5480068F5490840F3490860F448091D84
:101B30000860081F006820F48020091F086000204A
:101B4000ED490C31086070470021EB4A921C11707E
:101B500011460870704710B501460022002300208E
:101B60004A11012A02D1E44C236808E0022A03D179
:101B7000E14C7034236802E0DF4C7434236801F0D8
:101B80001F02012494401C400CB1012000E0002001
:101B900010BD38B5002000900024002500BF312082
:101BA000FFF7D9FF05460098401C00900098B0F55B
:101BB000A06F01D0002DF2D03120FFF7CCFF08B18B
:101BC000012400E00024204638BD01460020CA4A16
:101BD000106820F0F80040EAC10010607047C94961
:101BE000086070470021C44A7032117011700128DA
:101BF00002D004280AD104E00121BF4A70321170DA
:101C000005E00521BC4A7032117000E000BF00BF42
:101C10007047BD490860704770B5049C41EA821561
:101C20000126C6EB530645EA0645054345EA046529
:101C3000B14E361D356070BDB249086670478201ED
:101C400042EA0172AC4B84331A607047AD49886632
:101C50007047AC49C864704702460020A64B083361
:101C6000186820F0EC6042EA01031843A24B0833E5
:101C700018607047024600209F4B0833186820F018
:101C8000784042EA010318439B4B083318607047C1
:101C900001460020984A0832106820F003000843EB
:101CA0001060704794480830006800F00C007047DE
:101CB00001460020904A0832106820F0F0000843E6
:101CC00010607047014600208B4A0832106820F4EB
:101CD000E05008431060704701460020864A0832F1
:101CE000106820F4604040EAC10010607047F0B511
:101CF0000021002200240225002602237E4F0837FF
:101D00003F6807F00C0121B1042905D0082937D11B
:101D100005E07E4F076036E07D4F076033E0764F89
:101D20003F1D3F68C7F38056734F3F1D3F6807F064
:101D30003F036EB1764FB7FBF3F7DFF8BCC10CF190
:101D4000040CDCF800C0CCF3881C07FB0CF40CE09E
:101D50006E4FB7FBF3F7DFF8A0C10CF1040CDCF811
:101D600000C0CCF3881C07FB0CF4634F3F1D3F6899
:101D7000C7F301477F1C7D00B4FBF5F7076002E065
:101D8000624F076000BF00BF5B4F08373F6807F036
:101D9000F00109095F4F7A5C0768D7404760564FEA
:101DA00008373F6807F4E051890A5A4F7A5C476860
:101DB000D7408760504F08373F6807F46041490BB0
:101DC000544F7A5C4768D740C760F0BD002100F4EB
:101DD0004072B2F5407F0AD1474A0832116821F4B7
:101DE000F8114D4A02401143434A08321160424AF9
:101DF00070321268C0F30B031A433F4B70331A6002
:101E0000704741494439086070473F49403908608C
:101E1000704742490860704739B1374A303212681A
:101E20000243354B30331A6006E0334A30321268D1
:101E30008243314B30331A60704739B12E4A343205
:101E4000126802432C4B34331A6006E02A4A3432BB
:101E500012688243284B34331A60704739B1264ADE
:101E6000383212680243244B38331A6006E0224AA3
:101E7000383212688243204B38331A60704739B1C8
:101E80001D4A4032126802431B4B40331A6006E081
:101E9000194A403212688243174B40331A60704728
:101EA00039B1154A443212680243134B44331A6065
:101EB00006E0114A4432126882430F4B44331A60E1
:101EC000704739B10C4A1032126802430A4B103382
:101ED0001A6006E0084A103212688243064B10333B
:101EE0001A607047E1B1044A143212680243024B8F
:101EF00014331A6019E0000000380240FFFFF6FEBC
:101F00001030002400004742800E47420024F400B5
:101F100000127A002C000020FFFCFF0F5C014742FA
:101F20005B4A126882435A4B1A60704739B1584A6B
:101F3000121D12680243564B1B1D1A6006E0544ADC
:101F4000121D12688243524B1B1D1A60704739B133
:101F50004F4A0C32126802434D4B0C331A6006E0B4
:101F60004B4A0C3212688243494B0C331A6070475B
:101F700039B1474A103212680243454B10331A6098
:101F800006E0434A103212688243414B10331A6014
:101F9000704739B13E4A3C32126802433C4B3C33F5
:101FA0001A6006E03A4A3C3212688243384B3C33AE
:101FB0001A60704739B1364A403212680243344BD6
:101FC00040331A6006E0324A403212688243304B96
:101FD00040331A60704739B12D4A443212680243C7
:101FE0002B4B44331A6006E0294A4432126882437C
:101FF000274B44331A60704739B1254A4C32126876
:102000000243234B4C331A6006E0214A4C321268DB
:1020100082431F4B4C331A60704739B11C4A50320F
:10202000126802431A4B50331A6006E0184A5032C5
:1020300012688243164B50331A60704739B1144A04
:10204000D21F12780243124BDB1F1A7006E0104AAF
:10205000D21F127882430E4BDB1F1A7070470C4858
:102060006030006840F08070094960310860704756
:1020700001460020064A083A12680A400AB10120C7
:1020800000E0002070470249891F08707047000077
:102090001438024010B5002400BF00BF00F054F90E
:1020A000044600BF00BF1021A24800F0FAFA00BFAA
:1020B00000BF204600F04CF900BF00BF10BD10B5B6
:1020C000FFF7E8FF10BD10B500209B490860FEF740
:1020D0000CFB10BD10B5FFF7F6FFFFF7F0FF10BDCA
:1020E00000BFFEE770B505460C46002614B900BFD8
:1020F000FFF7F6FF15B90A20208070BD00BF00BFB2
:1021000000F022F9064600BF00BF10228949284688
:1021100000F0A6FB00BF00BF304600F019F900BF79
:1021200000BF0020208000BFE7E72DE9F041054611
:102130000C46002714B900BFFFF7D2FF1DB90A20D3
:102140002080BDE8F0811021284600F071FB064692
:10215000102E15D200BF00BF00F0F6F8074600BFF2
:1021600000BF10222946734800F07AFB00BF00BF71
:10217000384600F0EDF800BF00BF0020208002E0EC
:102180004FF47A70208000BFDBE710B5FEF7C3FA8A
:102190000446204610BD704700B5014611B900BF86
:1021A000FFF79EFF644A106808B1002201E04FF477
:1021B000FA620A8000BD60490860704770B5054644
:1021C000284600F0CCF80446183C204670BD70B597
:1021D0000546284600F0C3F80446103C204670BD72
:1021E00070B50546284600F0BAF8044600BF204600
:1021F00070BD30B502460B464FF0FF350024AD1AD6
:102200009C4127D24FF0FF352C0CAD1A9C410FD2C8
:102210004FF0FF352C0AAD1A9C4103D2190E474CE2
:10222000605C45E0190C454C645C04F108003FE03B
:102230004FF0FF35FF24AD1A9C4105D2190A3F4CDF
:10224000645C04F1100033E019463C4C645C04F11A
:1022500018002DE04FF6FF750024AD1A9C4115D2F1
:102260006FF07F450024AD1A9C4107D2140E44EA5A
:102270000321324C645C04F1200019E0140C44EAA0
:1022800003412E4C645C04F1280011E0FF2500247A
:10229000AD1A9C4107D2140A44EA0361274C645CDE
:1022A00004F1300004E01146244C645C04F1380071
:1022B00030BD70B504460CB9082070BD204600F052
:1022C00051F805462846F8E770B504460CB91020C9
:1022D00070BD204600F046F805462846F8E770B580
:1022E00004460CB9202070BD204600F03BF805469E
:1022F0002846F8E72DE9F04304460D46002184EA1C
:1023000001006940084302D14020BDE8F083E24368
:10231000E843521C40F1000102EA040601EA050705
:1023200030463946FFF765FF8046C8F13F09484609
:10233000EBE70000482500203C00002000A5000835
:1023400072B6704762B67047EFF3108072B670478E
:1023500080F31088704730BF704720BF7047B0FAD5
:1023600080F0704790FAA0F0B0FA80F0704790FAD1
:10237000A0F070470146412903DB5A2901DC012204
:1023800000E00022012A08D0612903DB7A2901DC60
:10239000012200E00022012A01D1012200E00022F6
:1023A000104670470146412903DB5A2901DC01220E
:1023B00000E00022012A08D0612903DB7A2901DC30
:1023C000012200E00022012A01D1012200E00022C6
:1023D000012A08D0302903DB392901DC012200E081
:1023E0000022012A01D1012200E00022104670479C
:1023F0000146612903DB7A2901DC012200E0002289
:10240000104670470146412903DB5A2901DC0122AD
:1024100000E00022104670470146302903DB3929CD
:1024200001DC012200E000221046704701463029FD
:1024300003DB372901DC012200E00022104670474F
:102440000146302901DB392907DD412901DB462915
:1024500003DD612903DB662901DC012200E00022A3
:10246000104670470146202901D0092901D10122D7
:1024700000E00022104670470146202909D00D29AE
:1024800007D00A2905D00C2903D0092901D00B292E
:1024900001D1012200E000221046704701462029A8
:1024A00003DB7E2901DC012200E000221046704798
:1024B0000146212903DB7E2901DC012200E0002204
:1024C000104670470146202903DB7E2901DC0122EA
:1024D00000E00022012A35D1202909D00D2907D09A
:1024E0000A2905D00C2903D0092901D00B2901D1D3
:1024F000012200E000222ABB412903DB5A2901DC2A
:10250000012200E00022012A08D0612903DB7A2998
:1025100001DC012200E00022012A01D1012200E0B9
:102520000022012A08D0302903DB392901DC0122ED
:1025300000E00022012A01D1012200E000220AB9B4
:10254000012200E000221046704701464AB2002AEC
:1025500001DB1F2901DD7F2901D1012200E00022DA
:10256000104670470146412903DB5A2901DC01224C
:1025700000E00022012A02D101F1200200E00A4617
:10258000D0B270470146612903DB7A2901DC0122C0
:1025900000E00022012A02D1A1F1200200E00A4657
:1025A000D0B27047F0B504460B462046FFF7EAFF6D
:1025B00005461846FFF7E6FF0646B54201D1012061
:1025C00000E0002007463846F0BD000070B5044624
:1025D000002500BF00BFFFF7B7FE054600BF00BFE4
:1025E0001848046000BF00BF2846FFF7B1FE00BFD7
:1025F00000BF70BD10B50120FFF7E8FF10BD014618
:1026000043F23902104B03FB012222F000407047D5
:1026100070B5002600BF00BFFFF796FE064600BF5C
:1026200000BF084805682846FFF7E9FF044605484B
:10263000046000BF00BF3046FFF78AFE00BF00BF46
:10264000204670BD400000206D4EC64170472DE908
:10265000F04105460B4694460027002402E03F0265
:102660001F43641C042CFAD3604605F00306294678
:1026700046B1344603E001F8013B401E641C08B13A
:10268000042CF8D30A4601E080C2001F0428FBD2C4
:10269000114602E001F8013B401E0028FAD1BDE8D6
:1026A000F08130B505460C46224600212846FFF74A
:1026B000CEFF30BD2DE9F04F85B0074688469146E4
:1026C00046463D46AE4207D94A464146384600F0A6
:1026D00045FD05B0BDE8F08F4C4607EB0900451EEF
:1026E00008EB0900461EA81B04900498042834D364
:1026F00005F00300029006F003010191DDE90110ED
:10270000884201D1012000E00020009000980128BB
:1027100023D10298032810D0029840B2039008E019
:1027200016F8010905F80109641E0398401E40B21D
:10273000039014B103980028F2DAA5F1030AA6F178
:10274000030B04E05BF804094AF80409241F042C75
:10275000F8D20AF103050BF1030604E016F80109AB
:1027600005F80109641E002CF8D100BFB1E72DE97E
:10277000F84F80468946154615B90120BDE8F88F07
:10278000B8F1000F01D10020F8E7B9F1000F01D135
:102790000020F3E70124294608EB050209EB0503B5
:1027A00002F0030C03F0030BDC4501D1012000E033
:1027B000002000900098012829D1BCF1000F12D010
:1027C000E2460AE0521E5B1E107893F800E0704566
:1027D00000D00024491EAAF1010A012C03D111B135
:1027E000BAF1000FEED1012C11D116461F4608E0B8
:1027F000361F3F1F3068D7F800E0704500D0002436
:10280000091F012C01D10429F2D232463B4608E0CF
:10281000521E5B1E107893F800E0704500D0002433
:10282000491E012C01D10029F2D12046A6E7000063
:1028300010B502460B461146002001E0491C401C21
:1028400019B10C780CB19842F8D310BD30B50446DC
:102850004FF0FF312046FFF7EBFF0546284630BD1D
:1028600070B504460D4616460CB9002070BD0DB972
:102870000020FBE721462A46002304E01078087078
:10288000491C521C5B1C21B11AB1107808B1B3422B
:10289000F4D301B10AB90020E8E7B34201D2002025
:1028A00008702046E2E770B504460D464FF0FF324F
:1028B00029462046FFF7D4FF0646304670BD70B566
:1028C00003460C4615460BB9002070BD0CB900201C
:1028D000FBE70DB91846F8E7194600E0491C11B1AD
:1028E00008780028FAD109B90020EEE72246002630
:1028F00004E010780870491C521C761C21B11AB1F2
:10290000107808B1AE42F4D301B10AB90020DCE777
:10291000002008701846D8E770B504460D464FF001
:10292000FF3229462046FFF7CAFF0646304670BDF3
:102930002DE9F04305460B469446BCF1000F02D149
:102940000020BDE8F08335B90BB90020F9E718780D
:1029500042421046F5E713B92A781046F1E72946B6
:102960001C460F4626467F1C761C4FF0000805E0EB
:10297000491C641C7F1C761C08F10108087894F837
:102980000090484505D1087818B117B10EB1E0455F
:10299000EED3E04501D10020D3E7087894F8009009
:1029A000484505D0087894F80090A0EB09020BE0A8
:1029B000087808B9002207E02FB90EB9002203E019
:1029C0003078424200E03A781046BAE770B50446E3
:1029D0000D464FF0FF3229462046FFF7A9FF064675
:1029E000304670BD2DE9F74F82B080460E46049800
:1029F00018B9002005B0BDE8F08FB8F1000F09D17B
:102A00000EB90020F6E73078FFF7ACFD07467C42B0
:102A10002046EFE73EB998F80000FFF7A3FD054612
:102A20002C462046E6E7C146B246C846C34656464F
:102A3000CDF804A0D8460BF1010B019E701C01904B
:102A4000C84699F80000FFF78DFD054656469AF8EE
:102A50000000FFF787FD07460020009015E009F110
:102A600001090AF1010A0BF1010B0198401C0190C8
:102A70000098401C009099F80000FFF773FD054690
:102A80009AF80000FFF76EFD0746BD420BD199F89A
:102A9000000040B1BBF1000F05D0019818B10499B6
:102AA00000988842DBD304990098884201D1002025
:102AB000A0E7BD4201D0EC1B16E00DB9002413E0E5
:102AC000BBF1000F0AD1019808B900240CE001996C
:102AD0000878FFF747FD07467C4205E09BF80000B9
:102AE000FFF740FD05462C46204683E770B50446B7
:102AF0000D464FF0FF3229462046FFF773FF06468A
:102B0000304670BD30B504460B4615460CB9002062
:102B100030BD0BB90020FBE72146002201E0491C33
:102B2000521C31B1087820B10878A84201D09A42ED
:102B3000F5D309B90020EBE79A4201D30020E7E77B
:102B40000878A84201D00020E2E70846E0E770B527
:102B500005460C4622464FF0FF312846FFF7D2FFCC
:102B60000646304670BD2DE9F04305460E46174631
:102B700015B90020BDE8F0830EB90020FAE72C4615
:102B8000A6F1010949462046FFF752FE804644441B
:102B90000CB90020EEE700E0641EAC4202D02078C1
:102BA000B842F9D12078B84201D00020E2E72046AF
:102BB000E0E770B505460C4622464FF0FF31284647
:102BC000FFF7D1FF0646304670BD70B504460D468E
:102BD00016460CB9002070BD0BB90020FBE721465A
:102BE0001A4605E00878A84200D10E70491C521E12
:102BF00019B1087808B1002AF4D12046EBE7F0B506
:102C000004460D4616464FF0FF333246294620460D
:102C1000FFF7DBFF07463846F0BD2DE9FF4F0646BC
:102C20000F4615461EB9002004B0BDE8F08F0FB95D
:102C30000020F9E70DB90020F6E7681C00B101E0BB
:102C40004FF0FF30039029463046FFF7F1FD8046F4
:102C500038460399FFF7ECFD04460CB93046E3E72C
:102C6000444501D90020DFE706EB080BBBF1000F5C
:102C700001D10020D8E707EB040BBBF1000F01D115
:102C80000020D1E7A8EB040002904FF000090020DB
:102C9000019000BF06EB09000090224639460098DB
:102CA000FFF746FE8246BAF1000F01D1012000E095
:102CB0000020019009F10109019810B9029881459D
:102CC000E8D9BAF1000F01D00020ADE70098ABE7DA
:102CD00070B504460D464FF0FF3229462046FFF7F7
:102CE0009CFF0646304670BD2DE9FF4F8DB00F4664
:102CF00015461A9E1D9818B9002011B0BDE8F08F36
:102D0000002003900490012F01DA01200390022D8E
:102D100001D3242D01D90120039096B33046FFF74B
:102D2000BDFB02900298012802D00120039028E008
:102D3000302E26D0A6F13000C0B207901B98012893
:102D400004D0A6F14100C0B2069003E0A6F16100F4
:102D5000C0B206900A2D02D80798A84209DB0A2DB6
:102D600009D907980A2804D3A5F10A0006998842D0
:102D700001D9012000E0002005900598012800D12C
:102D800003901D9C0398002846D1DDF834A0DDF89F
:102D900034A0CDF830A001200B9007E00B98401C28
:102DA000C0B20B900C98B0FBF5F00C900C98A842B8
:102DB000F4D21098012800D100E0002009900B996E
:102DC00009980844B84225DC002001900B98B842CD
:102DD00001DA0B9800E038460A903EB1B8460A98EE
:102DE000391A0998081AC0B2089006E0DDE90910FE
:102DF000084400F0FF08002008900898002806DD2D
:102E0000302E01D1012000E00020049004E00020D9
:102E1000049001E001200390039800B1B8464444B7
:102E20001C9808B100202070641E4FF0000941E09A
:102E30000398A8BBBAF1000F02D1B9F1000F1CD161
:102E4000BAFBF5F005FB10A000F0FF0BBBF10A0F79
:102E500004D20BF1300004F801090BE01B980128A3
:102E600004D00BF1370004F8010903E00BF157001F
:102E700004F80109BAFBF5FA1AE01098012810D1FC
:102E8000049808B9019828B1049850B1A8F101003C
:102E9000484506D12D2004F801090120019007E0E2
:102EA00003E02EB104F8016902E03F2004F80109B3
:102EB00009F10109C145BBD3039808B100201CE703
:102EC0001D981AE72DE9FF5F05460E4617461C467A
:102ED000DDE90F9ADDF8388000233A46314628466E
:102EE0008DE81007FFF700FF8346584604B0BDE8A1
:102EF000F09F2DE9FF4F85B0044689461F46DDE966
:102F000013AB002C02DA6542012601E025460026BB
:102F100012983346CDE902ABCDE900704946284608
:102F2000079AFFF7E1FE8046404609B0BDE8F08F02
:102F30002DE9FF4F8BB0064689461546B9F1000FC3
:102F400002D10DF1240900BFC9F80060189810B92A
:102F500007A8189000BF0021189801701EB9002022
:102F60000FB0BDE8F08F012D01D0242D01D9002034
:102F7000F6E734462078FFF77FFA039004E0641CFC
:102F80002078FFF779FA039003980128F7D020788A
:102F90002B2802D02D280BD103E0641C4FF0000B2E
:102FA00009E00E98012800D1641C4FF0010B02E0EB
:102FB0004FF0000B00BF00BF0A9425B1082D1CD0B4
:102FC000102D36D11EE02078302814D1641C2078D2
:102FD000582802D078280BD100BF102567783846D2
:102FE000FFF72EFA8246BAF1010F00D1641C01E00E
:102FF000082500BF00E00A251CE02078302800D119
:10300000641C17E02078302812D1641C20785828DE
:1030100002D078280AD100BF67783846FFF710FA47
:103020008246BAF1010F00D1641C00E000BF00BF6E
:1030300000E000BF00BF4FF00008002002900190A8
:1030400040E027783846FFF7ADF90590059801284C
:1030500036D13846FFF7E0F906900698012804D1EA
:10306000A7F13000C0B208900FE03846FFF7C0F972
:1030700004900498012804D1A7F15700C0B2089029
:1030800003E0A7F13700C0B208900898A84214DA0C
:10309000029880B9304850F82500404509D308FB14
:1030A00005F8089880440898804504D201200290D1
:1030B00001E001200290641C04E00120019001E085
:1030C0000120019001980028BBD00298012801D16D
:1030D0004FF0FF380A98844202D0C9F8004001E05E
:1030E000C9F80060189880F800B0404638E7F8B595
:1030F00004460D46164600200346324629460090F7
:103100002046FFF715FF07463846F8BD2DE9FC417C
:1031100005460E46174601A801233A46314600905F
:103120002846FFF705FF04469DF8040040B9B4F1B6
:10313000004F02D36FF0004000E02046804607E0D9
:10314000B4F1004F02D34FF0004000E060428046EF
:103150004046BDE8FC81000004A60008002800D11C
:103160007047002900D17047002A00D170472DE92F
:10317000F81F00F0030301F00304A34211D1C3F1CF
:10318000040303F00303012B1DD3012A00D2F2E054
:1031900011F8014B00F8014BA3F10103A2F1010268
:1031A000F1E700F0010301F00104A34200D094E034
:1031B000012B44D311F8014B00F8014BA3F101039B
:1031C000A2F10102F4E7B2F5B47F26D3B1E8F81F0B
:1031D000A0E8F81FB1E8F81FA0E8F81FB1E8F81F51
:1031E000A0E8F81FB1E8F81FA0E8F81FB1E8F81F41
:1031F000A0E8F81FB1E8F81FA0E8F81FB1E8F81F31
:10320000A0E8F81FB1E8F81FA0E8F81FB1E8F81F20
:10321000A0E8F81FA2F5B472D5E7282A06D3B1E8D2
:10322000F81FA0E8F81FA2F12802F6E7042A06D347
:1032300051F8043B40F8043BA2F10402F6E7202ACF
:1032400042D331F8023B20F8023B31F8023B20F830
:10325000023B31F8023B20F8023B31F8023B20F8F8
:10326000023B31F8023B20F8023B31F8023B20F8E8
:10327000023B31F8023B20F8023B31F8023B20F8D8
:10328000023B31F8023B20F8023B31F8023B20F8C8
:10329000023B31F8023B20F8023B31F8023B20F8B8
:1032A000023B31F8023B20F8023B31F8023B20F8A8
:1032B000023B31F8023B20F8023B31F8023B20F898
:1032C000023BA2F12002BAE7022A06D331F8023B00
:1032D00020F8023BA2F10202F6E7102A42D311F8CD
:1032E000013B00F8013B11F8013B00F8013B11F8EC
:1032F000013B00F8013B11F8013B00F8013B11F8DC
:10330000013B00F8013B11F8013B00F8013B11F8CB
:10331000013B00F8013B11F8013B00F8013B11F8BB
:10332000013B00F8013B11F8013B00F8013B11F8AB
:10333000013B00F8013B11F8013B00F8013B11F89B
:10334000013B00F8013B11F8013B00F8013B11F88B
:10335000013B00F8013B11F8013B00F8013BA2F1F1
:103360001002BAE7012A06D311F8013B00F8013B2D
:10337000A2F10102F6E7BDE8F81F704770470000B0
:10338000002419E000BF00BFFEF7DEFF044600BFC7
:1033900000BFFA480068401CF8490860F848006817
:1033A000401CF749086000BF00BF2046FEF7D0FF71
:1033B00000BF00BF06F09CFEE4E710B58AB00446EB
:1033C0000020EE4908600B2000210591CDE907049B
:1033D00006910846EB490968EB4A1268EB4B1B68FB
:1033E000CDE90132CDE903103F200023AFF26F0297
:1033F000E7A10090EB4804F000FD0AB010BD0021E9
:103400000AE001EB4102E84B03EB8200002202815B
:10341000026042604A1CD1B24029F2D3704770B5B5
:10342000044606F06DFE0020E0490870E04908708F
:10343000E0490870E0490860E0490860E049087028
:10344000E0490870E0490870E0490870E048006809
:103450000A21B0FBF1F0DF490860DF48006858B18D
:10346000DE48056845B1DC48066803E0761E0020AA
:1034700028602D1D002EF9D10020D9490860D949B6
:103480000860D9490860D9490860D9490860D94914
:103490000860D9490860D949087002F0BBFFFFF7FE
:1034A000AEFF204601F003FE208800B170BD20462B
:1034B00002F021F9208800B1F8E7204602F02CF94B
:1034C000208800B1F2E7204602F08CFF208800B18E
:1034D000ECE7204603F038FC208800B1E6E7204600
:1034E00004F04EF8208800B1E0E7204606F078F8B6
:1034F000208800B1DAE7204601F048FF208800B1BB
:10350000D4E72046FFF759FF208800B1CEE72046D8
:1035100006F00DFA208800B1C8E7204604F0C6FA8C
:10352000208800B1C2E700F0F1FDFFF727FF00BFE0
:10353000BCE79F480078012800D070479B4800787E
:10354000FA2800DBF9E799480078401C9749087091
:1035500000BFF2E710B5002495480078012800D09C
:1035600010BD00BFFEF7F0FE044600BF8F48007894
:1035700028B900BF2046FEF7EBFE00BFF0E78B48FE
:103580000078401E8949087008460078002805DD4B
:1035900000BF2046FEF7DCFE00BFE1E7854800786B
:1035A000002805DD00BF2046FEF7D2FE00BFD7E7AA
:1035B00002F03AFF834908700846007800EB4000AB
:1035C000794951F820007D490860084600687A4929
:1035D0000968884205D100BF2046FEF7B9FE00BF4A
:1035E000BEE776480068D0F88C00401C7349096833
:1035F000C1F88C0082480068401C8149086006F0D0
:1036000031FF00BF2046FEF7A3FE00BF00BFA7E7C3
:1036100010B5002465480078002800DD10BD65481D
:103620000078002800DDF9E700BFFEF78DFE0446B4
:1036300000BF02F0F9FE634908700846007800EB0D
:103640004000594951F820005C490860084600686C
:1036500059490968884205D100BF2046FEF778FE27
:1036600000BFDBE755480068D0F88C00401C534988
:103670000968C1F88C0062480068401C6049086015
:1036800006F0EBFE00BF2046FEF762FE00BF00BF63
:10369000C4E770B50446002544480078002803DDDF
:1036A00046F66250208070BD41480078012803D062
:1036B00045F689602080F6E73E480078FA2803DB6B
:1036C00045F209202080EEE700BF00BFFEF73CFE78
:1036D000054600BF00BF37480078401C35490870D8
:1036E00000BF00BF2846FEF733FE00BF00BF00202A
:1036F000208000BFD7E770B5044600252B4800782E
:10370000002803DD46F66550208070BD284800780B
:10371000012803D045F689602080F6E72548007827
:1037200018B946F664502080EFE700BF00BFFEF7EF
:103730000BFE054600BF00BF1E480078401E1D4915
:1037400008700846007800280ADD00BF00BF284640
:10375000FEF7FEFD00BF00BF46F663502080D4E7B1
:1037600000BF00BF2846FEF7F3FD00BF00BFFFF714
:103770004FFF0020208000BFC7E700006800002046
:10378000BC000020A0A600089CA6000898A600087F
:1037900075432F4F532D4949492049646C65205486
:1037A00061736B00D83800205C3A00206C00002068
:1037B0006D000020A6000020F4000020F80000208A
:1037C0009A0000209B0000209C000020AC000020FC
:1037D000F8A60008A8000020C8A60008C4A6000893
:1037E0004C00002050000020540000205800002011
:1037F0005C0000206000002064000020DA0000204F
:10380000D00000202DE9F04105460C461646002761
:1038100000BF00BFFEF798FD074600BF00BF012DA7
:1038200003D00020F849087002E00120F649087032
:1038300014B1F648046006E0F54800680A21B0FBC0
:10384000F1F0F249086000BF00BF3846FEF780FD86
:1038500000BF00BF00203080BDE8F08110B50146F8
:103860000C8924B1012C03D0022C0CD101E000BF43
:1038700014E008684A6802610024C4601461D060E2
:103880000A6048600AE008684A68C36800241C614E
:10389000C4600261D0600B60486000BF00BF10BD13
:1038A0002DE9F04104460027DA480078002804DDBD
:1038B00048F2D1402080BDE8F081D7480078002848
:1038C00003DD46F663502080F5E7CF4800780128F5
:1038D00003D046F67B102080EDE700BF00BFFEF767
:1038E00033FD074600BF00BFCC48007800EB400026
:1038F000CB4901EB8006308902280ADA00BF00BFFD
:103900003846FEF725FD00BF00BF46F67A1020803E
:10391000D1E73046FFF7A2FF3568286D18B9BB48DC
:103920000068686501E0286D686500BF00BF384623
:10393000FEF70EFD00BF00BFFFF76AFE00202080EB
:1039400000BFB8E710B50446B6480078E8B902F001
:103950006BFDB549087008460078B0490870B24858
:10396000007800EB4000AE4951F82000AF490860F4
:1039700008460068AE4908600120AA49087006F0B0
:103980005BFD43F69920208002E045F68A602080A6
:1039900010BD01460020088047F2C160704730B575
:1039A00048B14568C1F8B85000F10804226893682E
:1039B0001D6AC56113E091F83450022D02D0072D25
:1039C00008D103E09BA5C1F8B85007E09BA5C1F85A
:1039D000B85003E09CA5C1F8B85000BF00BF30BD8F
:1039E000F0B58E6896F8375007893FB901270781EF
:1039F00000274F600F600160416023E007897F1C52
:103A00000781026806E0946894F83770AF4200DDE1
:103A100002E05268002AF6D100BF32B900274F6099
:103A200043680B60596041600CE017682FB9116062
:103A300000270F604A60016004E013680B604A6071
:103A400059601160F0BD10B5C287016300230AE020
:103A500000244C600C600C614C610C83CC6188606C
:103A600020315C1CA3B29342F2DB10BD2DE9F04182
:103A7000054695F8370000EB4000694901EB8004EA
:103A80002F69EE6887B946B9002020812060606008
:103A900095F8370002F0EAFC0EE02089401E2081F4
:103AA00000203061266007E02089401E2081FE60F2
:103AB0000EB9676000E0376100202861E860BDE86A
:103AC000F08170B504460D4645B12A4621465F484F
:103AD00005F074FF032084F8360002E0022084F829
:103AE00036002046FFF7C2FF70BD2DE9F0410546C4
:103AF0000C4616461F464E48006880F83460002089
:103B00004B49096881F83500394649480068FFF794
:103B1000D8FF6CB104F10808EC6001222946444842
:103B20000068FFF790FF29464046FFF759FF06E07F
:103B300000203F490968C8873D49096808633C4837
:103B400001682046FFF72BFFBDE8F08110B504891E
:103B5000012C03D100240460446011E00C6824B9F6
:103B60004A680024146002600AE04C6824B90B68BB
:103B700000245C60436003E00B684A685A6013608D
:103B80000489641E048100244C600C6010BD2DE982
:103B9000F0410446256BE68F0AE0D5F80C8008F169
:103BA000080729463846FFF7D1FF2035701E86B238
:103BB000002EF2DC0020E0872063BDE8F08130B504
:103BC0000346086BCC8F08E0C5689D4202D10361B3
:103BD000C26104E02030651EACB2002CF4DC00BFF2
:103BE00030BD10B590F8373003EB43030C4C04EBB9
:103BF00083010B893BB901230B810023C36003615F
:103C0000086048602EE023E0AC000020A8000020FF
:103C1000F8A600086C000020A60000209A000020F2
:103C20005C3A00206D0000209B000020F80000207E
:103C3000F40000205461736B205100005461736BD9
:103C40002053656D0000000020000000EC00002003
:103C50000B895B1C0B810B68C360002303610A683E
:103C60001061086010BD10B590F8373003EB4303C6
:103C7000F94C04EB83010B893BB901230B81002331
:103C8000C36003610860486008E00B895B1C0B811E
:103C90000023C3604A680261D060486010BD10B55F
:103CA000044694F8370002F0D1FB94F83700EB4952
:103CB0000978884203D12046FFF7D5FF02E020466D
:103CC000FFF78FFF10BD70B505460C46164694F8F9
:103CD000360008284ED2DFE800F004050809060780
:103CE0002E2F00BF00BF00BF45E000BF94F8340096
:103CF000032804D1324621462846FFF760FF002002
:103D0000A065A4F85C00266415B12046FFF73FFFCC
:103D100094F83600032802D1204605F011FF204612
:103D2000FFF7BDFF00203434A07001206070002038
:103D300004F834091FE000BF94F83400032804D1CC
:103D4000324621462846FFF73AFF0020A065A4F836
:103D50005C00266415B12046FFF719FF204605F0E8
:103D6000EFFE04203434A07001206070002004F8BD
:103D7000340900E000BF00BF70BD30B5AFF23815A8
:103D8000C1F8B85000F1080422681AB193681D6A9E
:103D9000C56102E0AFF25015C56130BD2DE9F043B9
:103DA00004460F4684F83770256BB4F83E8013E064
:103DB000D5F80C9009F108063089012807D9294661
:103DC0003046FFF7C3FE29463046FFF709FE20358F
:103DD000A8F101001FFA80F8B8F1000FE8D1BDE8A2
:103DE000F0830021016041600181704703895B1C01
:103DF000038103684B6000230B60026802B111600D
:103E000001600389012B00D14160704730B5034642
:103E1000086BCC8F08E0C5689D4202D10361C26186
:103E200004E02030651EACB2002CF4DC00BF30BDD5
:103E300070B506460C46154694F8360008284CD254
:103E4000DFE800F00405080906072D2E00BF00BFBB
:103E500000BF43E000BF94F83400032804D12A4691
:103E600021463046FFF7D2FF0020A065A4F85C0091
:103E700025642046FFF78BFE94F83600032802D114
:103E8000204605F05DFE2046FFF709FF0020343490
:103E9000A07002206070002004F834091EE000BF0A
:103EA00094F83400032804D12A4621463046FFF70F
:103EB000ADFF0020A065A4F85C0025642046FFF754
:103EC00066FE204605F03CFE04203434A07002203B
:103ED0006070002004F8340900E000BF00BF70BD2E
:103EE000F0B50446059E086BCD8F0AE0C768A7426F
:103EF00004D1046142610383C66104E020306F1E77
:103F0000BDB2002DF2DC00BFF0BD2DE9F84306463E
:103F10000C4617469846089D94F8360008285BD250
:103F2000DFE800F0040508090607323300BF00BFD0
:103F300000BF52E000BF94F83400032807D1434685
:103F40003A46214630460095FFF7CAFF03E0A765D1
:103F5000A4F85C80256436B12046FFF718FE2146A0
:103F60003046FFF70AFF94F83600032802D12046B6
:103F700005F0E6FD2046FFF792FE00203434A070E5
:103F8000607004F8340928E000BF94F83400032876
:103F900007D143463A46214630460095FFF7A0FF39
:103FA00003E0A765A4F85C80256436B12046FFF7DE
:103FB000EEFD21463046FFF7E0FE94F83600072874
:103FC00002D1204605F0BCFD04203434A07000204E
:103FD000607004F8340900E000BF00BFBDE8F8835A
:103FE00010B5002400BFFEF7AFF9044600BF002063
:103FF0001B4908701B481C49086008460068D0F837
:104000008C00401C0968C1F88C0018480068401CEE
:104010001649086006F021FA00BF2046FEF798F91D
:1040200000BF10BD70B50546002611480078012874
:1040300000D070BD00BF00BFFEF786F9064600BF86
:1040400000BF2C68B4B900BF00BF3046FEF780F94E
:1040500000BF00BFEDE700005C3A00209A0000209E
:104060009B00002094390020F8000020D0000020A0
:10407000AC0000202248844207D100BF00BF304678
:10408000FEF766F900BF00BFD3E7606D10B1606D49
:10409000401E6065606D38B100BF00BF3046FEF75E
:1040A00057F900BF00BFC4E72889022807DA00BF1C
:1040B00000BF3046FEF74CF900BF00BFB9E711481A
:1040C0000078002807DD00BF00BF3046FEF740F94A
:1040D00000BF00BFADE72846FFF7C0FB2C68206D8E
:1040E00018B909480068606501E0206D606500BF8F
:1040F00000BF3046FEF72CF900BF00BF00BF98E7B5
:10410000D8380020A6000020A8000020234A244917
:10411000244A254A2549264A2648274A274A284A22
:10412000284A294829482A482A4A2B482B4A2C48F9
:104130002C4A2D482D482E482E482F4A2F4A304AC7
:104140003048314A314A324832483348334834489B
:1041500034483548354A364A364A374A3748384867
:104160003848394A394A3A4A3A483B483B483C4938
:104170003C483D4A3D4A3E4A3E4A3F4A3F4A404A01
:104180004048414A414A42484248434A434A4448D7
:10419000444A454800BF00BF00BF70472CA7000835
:1041A00090A800082DA700082EA7000830A7000837
:1041B00034A7000838A7000835A7000860A7000842
:1041C00061A7000862A7000864A7000866A70008A6
:1041D00068A700086AA700086CA700088CA7000859
:1041E0008EA7000890A7000892A7000894A70008CF
:1041F00096A7000898A70008C4A70008C5A700084C
:10420000C6A70008C8A70008CAA70008CBA70008CF
:10421000CCA70008CEA70008D0A70008D2A70008A6
:10422000D4A70008D6A70008D8A7000808A8000847
:1042300009A800080AA800080BA800080CA8000894
:104240000EA8000810A8000838A8000839A800081F
:104250003AA800083BA800083CA800083EA80008AF
:1042600040A8000844A8000845A8000846A800087F
:1042700047A8000848A8000849A800084AA800085C
:104280004BA800084CA800084EA800084FA800083A
:1042900050A8000852A8000854A8000855A8000813
:1042A00058A8000888A800088CA80008FEA1C161D1
:1042B00000214161FD49096811B90021816105E0D2
:1042C000FA4909688161F94909684861F749086054
:1042D00070472DE9F04104460E4617461D464FF043
:1042E0000008F3480078002804DD42F6E1602880E9
:1042F000BDE8F0811CB945F6C3502880F8E700BF3F
:1043000000BF00BFFEF720F8804600BF00BFE948AD
:104310000078401CE749087000BF00BF4046FEF728
:1043200017F800BF00BF00BFE34820606660276247
:104330000020606204F10800FFF753FD2046FFF7FC
:10434000B5FFDE480088401CDC49088000BF00BF84
:1043500000BFFDF7F9FF804600BF00BFD5480078D9
:10436000401ED449087000BF00BF4046FDF7F0FF73
:1043700000BF00BF00BF0020288000BFB8E770B5B5
:104380000446CF482060CFA060600020206204F186
:1043900008052846FFF725FD70BD426981693AB9D5
:1043A000C24B196009B100234B610023836109E00E
:1043B00019B900239361436104E091614A610023CC
:1043C0008361436170472DE9FC5F054688461446CA
:1043D00000200090B6480078002805DD43F2C9208F
:1043E00020800020BDE8FC9F25B945F6C350208001
:1043F0000020F7E7B8F1000F03D0B8F1010F02D1A8
:1044000000E000BF04E045F6256020800020E9E7D9
:1044100000BFA9492868884204D045F6C4502080CE
:104420000020DFE700BF00BF00BFFDF78DFF009059
:1044300000BF00BF9F480078401C9E49087000BF25
:1044400000BF0098FDF784FF00BF00BF00BF05F16B
:104450000809B9F808603746B8F1000F03D0B8F181
:10446000010F6ED16EE07FBB2846FFF796FF9348A1
:104470000088401E914908802846FFF780FF00BF52
:1044800000BF00BFFDF760FF009000BF00BF89487C
:104490000078401E8749087008460078A8B98B4804
:1044A0000088002809DD00BF00BF0098FDF750FF1D
:1044B00000BF00BFFFF794FD0EE000BF00BF0098F3
:1044C000FDF746FF00BF07E00AE000BF00BF00980D
:1044D000FDF73EFF00BF00BF00BF002020802FE09F
:1044E00000BF00BF00BFFDF72FFF009000BF00BF5F
:1044F00070480078401E6F49087008460078A0B9DF
:1045000072480088002809DD00BF00BF0098FDF751
:104510001FFF00BF00BFFFF763FD0DE000BF00BF3E
:104520000098FDF715FF00BF06E000BF00BF009830
:10453000FDF70EFF00BF00BF00BF47F25F102080F5
:1045400067E035E0FCF7E7F801900AE0D9F800A051
:10455000DAF808B059462846019AFFF769FC701E40
:1045600086B2002EF2D12846FFF717FF5348008885
:10457000401E524908802846FFF701FF00BF00BFD8
:1045800000BFFDF7E1FE009000BF00BF4948007882
:10459000401E4849087000BF00BF0098FDF7D8FED4
:1045A00000BF00BF00BFFFF733F80020208030E0DD
:1045B00000BF00BF00BFFDF7C7FE009000BF00BFF7
:1045C0003C480078401E3B49087008460078A0B976
:1045D0003E480088002809DD00BF00BF0098FDF7B5
:1045E000B7FE00BF00BFFFF7FBFC0DE000BF00BF40
:1045F0000098FDF7ADFE00BF06E000BF00BF0098C9
:10460000FDF7A6FE00BF00BF00BF45F62560208075
:1046100000BF00BF3846E5E62DE9F04106460F46EB
:1046200014461D46DDF8188029480068C4672848EC
:104630000068A0F88450002025490968C1F880006E
:104640004346012239463046FFF74FFABDE8F08174
:104650002DE9F04F8BB00546884693469946DDE933
:1046600014740020019012480078002806DD46F2FC
:10467000AE10208000200BB0BDE8F08F25B945F6C4
:10468000C35020800020F6E748F20101A9EB0100A9
:1046900089454ED032DC40F20111A9EB0100894579
:1046A00043D024DC16E0000020000000840000203D
:1046B0006C000020A6000020464C414788000020E6
:1046C0004E4F4E453F464C414700000078000020C9
:1046D000F4000020B9F1010F23D0B9F1020F21D06D
:1046E000B9F1040F1FD0B9F1080F2AD11CE001283D
:1046F0001CD003281BD0072823D119E0B0F5807FF8
:104700001BD006DC012815D0032814D0072818D1A7
:1047100012E0A0F2011088B1022810D0062810D1B2
:104720000EE000BF00BF00BF00BF00BF00BF00BF62
:1047300000BF00BF00BF00BF00BF00BF00BF00BF81
:1047400004E045F625602080002094E700BFF94989
:104750002868884204D045F6C450208000208AE7AB
:1047600009F4807010B14FF0010A01E04FF0000A27
:104770000FB10020386009F00F000A9000BF00BFA1
:10478000FDF7E2FD019000BF00BF0A9801286ED03E
:1047900002286DD0042802D008286AD16AE0286A6D
:1047A00000EA0806464517D1BAF1010F02D1286A7E
:1047B000B0432862E0480068C0F880600FB1686AC2
:1047C000386000BF00BF0198FDF7C2FD00BF00BF09
:1047D0000020208030464EE709F4004058B100BF69
:1047E00000BF0198FDF7B4FD00BF00BF46F2B01056
:1047F000208000203FE7D148007800280BDD00BF73
:1048000000BF0198FDF7A4FD00BF00BF46F663504E
:10481000208000202FE700BFC8480078401CC7490F
:10482000087000BF00BF0198FDF792FD00BF00BFF8
:1048300000BF4B464246294602A8CDF800B0FFF71C
:10484000EBFE00BF00BF00BFFDF77EFD019000BF83
:1048500000BFBA480078401EB849087000BF00BFCA
:104860000198FDF775FD00BF00BF00BF44E168E09F
:10487000CFE035E1286A00EA0806BEB1BAF1010FBF
:1048800002D1286AB0432862AB480068C0F8806053
:104890000FB1686A386000BF00BF0198FDF758FD8E
:1048A00000BF00BF002020803046E4E609F400404D
:1048B00058B100BF00BF0198FDF74AFD00BF00BF1F
:1048C00046F2B01020800020D5E69C4800780028F1
:1048D0000BDD00BF00BF0198FDF73AFD00BF00BF30
:1048E00046F6635020800020C5E600BF934800785C
:1048F000401C9249087000BF00BF0198FDF728FDD9
:1049000000BF00BF00BF4B464246294602A8CDF873
:1049100000B0FFF781FE00BF00BF00BFFDF714FD30
:10492000019000BF00BF85480078401E8349087091
:1049300000BF00BF0198FDF70BFD00BF00BF00BF27
:10494000DAE0286A28EA0006464517D1BAF1010FD5
:1049500002D1286A3043286277480068C0F8806036
:104960000FB1686A386000BF00BF0198FDF7F0FC26
:1049700000BF00BF0020208030467CE609F40040E4
:1049800058B100BF00BF0198FDF7E2FC00BF00BFB7
:1049900046F2B010208000206DE6684800780028BC
:1049A0000BDD00BF00BF0198FDF7D2FC00BF00BFC8
:1049B00046F66350208000205DE600BF5F48007827
:1049C000401C5E49087000BF00BF0198FDF7C0FCA5
:1049D00000BF00BF00BF4B464246294602A8CDF8A3
:1049E00000B0FFF719FE00BF00BF00BFFDF7ACFC31
:1049F000019000BF00BF51480078401E4F49087029
:104A000000BF00BF0198FDF7A3FC00BF00BF00BFBF
:104A100072E0286A28EA0006BEB1BAF1010F02D19D
:104A2000286A3043286244480068C0F880600FB1AB
:104A3000686A386000BF00BF0198FDF789FC00BFBD
:104A400000BF00202080304615E609F4004058B130
:104A500000BF00BF0198FDF77BFC00BF00BF46F21E
:104A6000B0102080002006E63448007800280BDDD6
:104A700000BF00BF0198FDF76BFC00BF00BF46F60A
:104A8000635020800020F6E500BF2C480078401CD1
:104A90002A49087000BF00BF0198FDF759FC00BF0C
:104AA00000BF00BF4B464246294602A8CDF800B0E1
:104AB000FFF7B2FD00BF00BF00BFFDF745FC01904E
:104AC00000BF00BF1D480078401E1C49087000BF91
:104AD00000BF0198FDF73CFC00BF00BF00BF0BE02A
:104AE00000BF00BF0198FDF733FC00BF00BF45F6D3
:104AF000256020800020BEE500BFFEF789FD00BFD5
:104B000000BFFDF721FC019000BF00BF0A4800680C
:104B100090F8350030B1012812D002282ED0032899
:104B20003CD11DE01FB104480068006C38600020D3
:104B300020803EE0464C4147F4000020A6000020C3
:104B40001FB1F7480068006C386000BF00BF0198D3
:104B5000FDF7FEFB00BF00BF46F2A910208028E051
:104B60000FB10020386000BF00BF0198FDF7F0FBD7
:104B700000BF00BF47F2D92020801AE01FB1E848EB
:104B80000068006C386000BF00BF0198FDF7E0FBD3
:104B900000BF00BF45F6C25020800AE000BF00BF42
:104BA0000198FDF7D5FB00BF00BF46F62E602080C0
:104BB00000BF00BF208808B100205CE5D84800682D
:104BC000D0F88060BAF1010F20D10A9801280BD0EB
:104BD00002280AD0042802D008280AD100E000BF29
:104BE000286AB043286210E000BF286A3043286278
:104BF0000BE000BF00BF0198FDF7AAFB00BF00BF9C
:104C000045F625602080002035E500BF00BF00BFCD
:104C10000198FDF79DFB00BF00BF002020803046BB
:104C200029E52DE9F05F05460E4614464FF0000ACF
:104C3000BC480078002805DD46F2AA10208000203C
:104C4000BDE8F09F25B945F6C35020800020F7E766
:104C50004EB1B6F5807F07D0B6F5004F05D0B6F55A
:104C6000014F04D102E000BF00BF00BF04E045F6E1
:104C7000256020800020E3E700BFAB492868884218
:104C800004D045F6C45020800020D9E700BF00BF03
:104C9000FDF75AFB824600BF00BF05F108073889BF
:104CA00058B900BF00BF5046FDF752FB00BF00BF20
:104CB00046F2AB1020800020C2E700BF9B4800787E
:104CC000401C9A49087000BF00BF5046FDF740FBEA
:104CD00000BF00BF00BF4FF00008FBF71CFD83467C
:104CE0000FE03868D0F808905A4649462846FEF743
:104CF000EAFF08F101001FFA80F8B6F5807F00D0C6
:104D000002E038890028ECDC00BF00BF00BF00BF14
:104D1000FDF71AFB824600BF00BF84480078401EA2
:104D20008249087000BF00BF5046FDF711FB00BF6D
:104D300000BF00BF06F4004008B9FEF769FC002080
:104D4000208040467CE770B5044600267548007810
:104D5000002804DD46F2AE102080002070BD00BFA8
:104D600000BFFDF7F1FA064600BF00BF6C480068BF
:104D7000D0F8805000BF00BF3046FDF7E9FA00BF11
:104D800000BF002020802846E8E770B504460E46A4
:104D900015463434E664002060702070E560A07829
:104DA000343C08281DD2DFE800F004050809070696
:104DB000171800BF00BF00BF14E000BF94F8360012
:104DC000032802D1204604F0BBFE2046FEF767FF11
:104DD000002084F8360005E000BF042084F8360087
:104DE00000E000BF00BF2046FEF7D1FE70BD2DE9F8
:104DF000F04F85B00446894692469B46DDF83880E0
:104E00000020009000BF00BFFDF79EFA009000BF99
:104E100000BFBAF1000F0AD0BAF1010F0DD0BAF5F8
:104E2000004F05D06FF40040504460B906E000BF69
:104E3000206A40EA0900206214E000BF206A20EAEC
:104E4000090020620EE000BF00BF0098FDF780FA65
:104E500000BF00BF45F62560A8F80000002005B09F
:104E6000BDE8F08F00BFC4F824B004F10800019041
:104E70000198008958B900BF00BF0098FDF768FA93
:104E800000BF00BF0020A8F80000206AE7E700BFCD
:104E900026480078401C2549087000BF00BF0098D4
:104EA000FDF756FA00BF00BF00BF01980768BD6854
:104EB00082E07868029095F8840000F00F0003907B
:104EC000039801281ED0022832D0042802D00828D6
:104ED00039D10CE0206AE96F00EA0106E86FB042C0
:104EE00004D15A4631462846FFF74FFF5EE0206A5C
:104EF000E96F00EA010626B15A4631462846FFF717
:104F000044FF53E0E86F216A20EA0106E86FB042EF
:104F100004D15A4631462846FFF737FF46E00000E5
:104F2000F40000206C000020464C4147A600002001
:104F3000E86F216A20EA010626B15A463146284622
:104F4000FFF723FF32E000BF00BF00BFFDF7FCF911
:104F5000009000BF00BF59480078401E57490870B4
:104F600008460078A0B956480088002809DD00BF2F
:104F700000BF0098FDF7ECF900BF00BFFFF730F865
:104F80000DE000BF00BF0098FDF7E2F900BF06E0AA
:104F900000BF00BF0098FDF7DBF900BF00BF00BFF6
:104FA00043F6FF20A8F80000002058E700BF029F4A
:104FB0000FB1BD6800E00025002D7FF47AAF00BF7F
:104FC00000BF00BFFDF7C0F9009000BF00BF3B4825
:104FD0000078401E3949087000BF00BF0098FDF7F7
:104FE000B7F900BF00BF00BF0AF4004008B9FEF7E0
:104FF0000FFB00BF00BFFDF7A7F9009000BF00BF87
:10500000206A049000BF00BF0098FDF7A1F900BF1F
:1050100000BF0020A8F80000049820E72DE9FF4712
:105020000546884617461C4635B945F6C3502080CC
:10503000002004B0BDE8F0874FB1012F08D0B7F5CC
:10504000004F06D06FF40040384420B902E000BFA2
:1050500000BF00BF04E045F6256020800020E8E79F
:1050600000BF18492868884204D045F6C450208003
:105070000020DEE7FBF74FFB0646134800780028C8
:105080000BDD00231A4629460E48CDE90087CDE9FD
:10509000026400F01FF80020CBE733463A46414651
:1050A00028460094FFF7A3FE81464846C1E7002149
:1050B000064A1160064A118001807047A600002050
:1050C00078000020464C41476C00002084000020FE
:1050D000880000202DE9F84F04460D4616461F466D
:1050E000DDE90BABDDF82890DDF83480002000907E
:1050F00000BF00BFFDF728F9009000BF00BFD748F0
:105100000088D749098888423EDAD4480088401C84
:10511000D2490880D34800880988884203DACF48FA
:105120000088D0490880D04800680460CE480068F4
:105130008560CD480068C660CB4800680782CA48D1
:105140000068C0F81490C8480068A0F818A0C648C5
:105150000068C0F81CB0C44800684068C2490860D4
:105160000120C2490881C24808604860002001F05F
:105170006DF9C048007818B1BE480078BE49087083
:105180000020A8F8000008E0BC480088401CBB498B
:10519000088044F25360A8F8000000BF00BF0098E8
:1051A000FDF7D6F800BF00BFBDE8F88F3EB5B448A4
:1051B0000068B44A0168881A914279D00FDCB2487D
:1051C000084400283ED0B1490844A8B1B049084479
:1051D000002860D0AF49084400286AD13FE0AE49BA
:1051E0000844002850D0AD490844002862D0AC499A
:1051F0000844002877D110E002A8A14C0090246850
:10520000E3699F4C2468228B9D4C246861699C4C07
:105210002468A068FFF7EBFD66E002A998480068E3
:10522000C069974CCDE900012468238B944C246815
:10523000228A934C2468E168914C2468A06801F0AC
:105240007EFC51E08E4B1B68DA698D4B1B68198B15
:105250008B4B1B68986802AB02F056F844E002A939
:1052600087480068C069864CCDE900012468238B1B
:10527000834C2468228A824C2468E168804C24682C
:10528000A06803F062F92FE07D490968886802A9E7
:1052900003F016FB28E07A4B1B68DA69784B1B6831
:1052A000198B774B1B68986802AB03F073FD1BE00A
:1052B00007E018E072490968886802A904F089F8D3
:1052C00012E06D49097801EB4101684A02EB810067
:1052D000FEF7A8FE6A48006802AB0021C269714867
:1052E00003F058FD00E000BF00BF3EBD00274CE0CA
:1052F000002648E000BF00BFFDF726F8074600BFC4
:1053000000BF5648008888B90020584908810860C5
:10531000486001F0ABF800BF00BF3846FDF718F851
:1053200000BF00BFFEF774F901262CE000BF00BFEC
:105330003846FDF70DF800BF00BFFBF7ECF9054656
:10534000FFF734FFFBF7E7F9441B57480068A0421A
:1053500001D25548046000BF00BFFCF7F5FF0746C7
:1053600000BF00BF464800684068454908603B48A8
:105370000088401E3949088000BF00BF3846FCF74E
:10538000E7FF00BF00BF002EB4D0B1E7F0B589B091
:1053900005460020394908804448006820B944F295
:1053A0005260288009B0F0BD2D480088022803DA39
:1053B00044F254602880F5E700203B4908603B48F0
:1053C00004682646203600270CE03948206000207B
:1053D000A060E06020826061208366602034203617
:1053E000781C87B21E4800888742EEDB203C2F489D
:1053F000066866601C480660214806600020174960
:105400000880184908802B48006818B944F2556094
:105410002880C7E72848006828490968884203D2DD
:1054200044F256602880BDE7032000210591CDE9B4
:105430000705069120480068214A12681D4B1B6829
:10544000CDE90301CDE9013200910B46AFF26312C1
:105450001CA1074802F0D1FC00BFA3E778000020A0
:10546000ACA600087A000020700000205C3A002002
:10547000943900209A0000209C0000207C0000202D
:10548000740000205449434BADBAB2BE0DF90BFA7B
:10549000F2F8F7FF0006F6FF00F7FDF700FFEFFF59
:1054A00003FE0FFE183E002080000020A8A6000882
:1054B0004E4F4E45B4A60008BCA60008F4A600084E
:1054C000B8A6000875432F4F532D49494920495329
:1054D00052205175657565205461736B00000000A2
:1054E000002181618749096811B90021C16105E086
:1054F00084490968C16183490968886181490860F4
:1055000070472DE9FF4F83B0044615461F46DDE97D
:105510001096002000907C480078002805DD45F2B8
:10552000B960308007B0BDE8F08F1DB945F2BB60AF
:105530003080F7E7022F03DA45F2BC603080F1E7F4
:10554000B9F1040F03D245F2C1603080EAE74FF0B1
:10555000030ABAF1000F0DD005EA0A0018B145F2AE
:10556000BB603080DEE709EA0A0018B145F2C1608D
:105570003080D7E7AB46A846781E80B20190002065
:10558000029007E0C844CBF80080C3460298401C54
:1055900080B20290DDE901108842F3DB0020CBF8F5
:1055A000000000BF00BF00BFFCF7CEFE009000BFB0
:1055B00000BF56480078401C5449087000BF00BF27
:1055C0000098FCF7C5FE00BF00BF00BF5048206038
:1055D0000498A0606560E560A7826782A4F81090D7
:1055E0002046FFF77DFF4B480088401C4949088052
:1055F00000BF00BF00BFFCF7A7FE009000BF00BFC8
:1056000042480078401E4149087000BF00BF009822
:10561000FCF79EFE00BF00BF00BF0020308000BF2F
:1056200080E72DE9F04104460D4600272CB945F2EC
:10563000BF6028800020BDE8F08100BF00BFFCF7FC
:1056400083FE074600BF00BFA08A58B900BF00BF55
:105650003846FCF77DFE00BF00BF45F2C2602880DF
:105660000020E8E7E6683068E060A08A401EA0827B
:1056700000BF00BF3846FCF76BFE00BF00BF002034
:1056800028803046D7E72DE9F04104460E461546FE
:10569000002724B945F2BF602880BDE8F0811EB91B
:1056A00045F2BE602880F8E700BF00BFFCF74CFE63
:1056B000074600BF00BFA08A618A88420ADB00BF9C
:1056C00000BF3846FCF744FE00BF00BF45F2BA6099
:1056D0002880E2E7E0683060E660A08A401CA08293
:1056E00000BF00BF3846FCF733FE00BF00BF0020FC
:1056F000288000BFD1E70021024A1160054A1180CD
:10570000018070478C0000206C000020A600002063
:105710004D454D209000002070B50146854D2D6807
:105720001DB945F21E750D8070BD834D2D881DB9C4
:1057300045F21D750D80F7E77E4D28682A68103206
:105740007D4D2D886D1EACB2002308E0026000255F
:1057500045600581C560103010325D1CABB2A342BC
:10576000F4DB0025056045600581C560714D2D683D
:10577000724E3560704D2D88B5800025F5803581DD
:105780000D8000BFD0E710B5014648894B89002B3A
:1057900017DD0A68694B1B681360684C4B6823600F
:1057A0002346DB884C891B1B644CE38023469B8883
:1057B0004C892344614CA38000234B818B810B6077
:1057C0004B6010BD018100224281828102604260F3
:1057D0007047F0B504460D46608940B90020288026
:1057E00002B1106046F2925018800020F0BD61684E
:1057F0004E68088928800AB1C8681060086860602F
:10580000606818B900202060608102E06089401E55
:1058100060814A4800680860484801608088401CF0
:10582000464FB8803846C088401EF8800020188057
:105830003046DBE72DE9F0410D46DDE90674B0F8AE
:105840000AC0B0F80880C44505DB46F2935CA4F8B2
:1058500000C0BDE8F081DFF8E4C0BCF804C0BCF1D2
:10586000000F04D145F21D7CA4F800C0F1E7DFF879
:10587000CCC0DCF80010DFF8C480D1F800C0C8F854
:1058800000C0C446BCF804C0ACF1010CA8F804C0C8
:10589000C446BCF806C00CF1010CA8F806C0C4460A
:1058A000BCF808C0B8F80680C44507DADFF88CC039
:1058B000BCF806C0DFF88480A8F808C0B0F80AC0B9
:1058C000BCF1000F0AD1016041604FF0010CA0F85B
:1058D0000AC04FF0000CC1F800C017E003F0100C34
:1058E000BCF1000F07D10668316001604FF0000C79
:1058F000C1F800C004E0D0F804C0C1F800C04160A5
:10590000B0F80AC00CF1010CA0F80AC0B0F80CC045
:10591000B0F80A80C44503DAB0F80AC0A0F80CC099
:105920004D600A81CF604FF0000CA4F800C000BFAA
:105930008FE70000D8A60008D0A60008503A002043
:10594000F8A1C16100214161F749096811B900213D
:10595000816105E0F44909688161F349096848619A
:10596000F149086070472DE9F04104460E4615469E
:105970000027EE480078002804DD42F6E160288028
:10598000BDE8F0811CB945F6C3502880F8E700BF98
:1059900000BF00BFFCF7D8FC074600BF00BFE448CB
:1059A0000078401CE249087000BF00BF3846FCF791
:1059B000CFFC00BF00BF00BFDE4820606660002053
:1059C000206284F82500A062402084F8240004F1BD
:1059D0000800FEF706FA2046FFF7B2FFD648008817
:1059E000401CD549088000BF00BF00BFFCF7ACFCDD
:1059F000074600BF00BFCE480078401ECC49087063
:105A000000BF00BF3846FCF7A3FC00BF00BF00BFCB
:105A10000020288000BFB3E710B50446C7482060C7
:105A2000C7A060600020206284F82500A0624020AA
:105A300084F8240004F10800FEF7D3F910BD426990
:105A400081693AB9B84B196009B100234B61002351
:105A5000836109E019B900239361436104E0916116
:105A60004A6100238361436170472DE9FE4F05467B
:105A70008946144600200090AC480078002805DDD7
:105A800043F2C92020800020BDE8FE8F25B945F6ED
:105A9000C35020800020F7E7B9F1000F03D0B9F11F
:105AA000010F02D100E000BF04E045F62560208030
:105AB0000020E9E700BF9F492868884204D045F6E6
:105AC000C45020800020DFE700BF00BF00BFFCF70C
:105AD0003BFC009000BF00BF95480078401C9449F3
